{
  "contractName": "Ballot",
  "abi": [
    {
      "constant": true,
      "inputs": [],
      "name": "chairperson",
      "outputs": [
        {
          "name": "",
          "type": "address"
        }
      ],
      "payable": false,
      "stateMutability": "view",
      "type": "function"
    },
    {
      "constant": true,
      "inputs": [
        {
          "name": "",
          "type": "uint256"
        }
      ],
      "name": "singers",
      "outputs": [
        {
          "name": "index",
          "type": "uint256"
        },
        {
          "name": "prevoteCount",
          "type": "uint256"
        },
        {
          "name": "finalvoteCount",
          "type": "uint256"
        },
        {
          "name": "finished",
          "type": "bool"
        }
      ],
      "payable": false,
      "stateMutability": "view",
      "type": "function"
    },
    {
      "constant": true,
      "inputs": [
        {
          "name": "",
          "type": "address"
        }
      ],
      "name": "voters",
      "outputs": [
        {
          "name": "prevoted",
          "type": "uint256"
        },
        {
          "name": "finvoted",
          "type": "uint256"
        }
      ],
      "payable": false,
      "stateMutability": "view",
      "type": "function"
    },
    {
      "constant": true,
      "inputs": [],
      "name": "state",
      "outputs": [
        {
          "name": "",
          "type": "uint8"
        }
      ],
      "payable": false,
      "stateMutability": "view",
      "type": "function"
    },
    {
      "inputs": [
        {
          "name": "numSingers",
          "type": "uint256"
        }
      ],
      "payable": false,
      "stateMutability": "nonpayable",
      "type": "constructor"
    },
    {
      "constant": false,
      "inputs": [
        {
          "name": "x",
          "type": "uint8"
        }
      ],
      "name": "changeState",
      "outputs": [],
      "payable": false,
      "stateMutability": "nonpayable",
      "type": "function"
    },
    {
      "constant": false,
      "inputs": [
        {
          "name": "singer",
          "type": "uint256"
        }
      ],
      "name": "markFinished",
      "outputs": [],
      "payable": false,
      "stateMutability": "nonpayable",
      "type": "function"
    },
    {
      "constant": false,
      "inputs": [
        {
          "name": "voter",
          "type": "address"
        }
      ],
      "name": "register",
      "outputs": [],
      "payable": false,
      "stateMutability": "nonpayable",
      "type": "function"
    },
    {
      "constant": false,
      "inputs": [
        {
          "name": "singer",
          "type": "uint256"
        }
      ],
      "name": "preVote",
      "outputs": [],
      "payable": false,
      "stateMutability": "nonpayable",
      "type": "function"
    },
    {
      "constant": false,
      "inputs": [
        {
          "name": "singer",
          "type": "uint256"
        }
      ],
      "name": "finVote",
      "outputs": [],
      "payable": false,
      "stateMutability": "nonpayable",
      "type": "function"
    },
    {
      "constant": true,
      "inputs": [],
      "name": "finalSingersRanking",
      "outputs": [
        {
          "name": "finalSingersRanking_",
          "type": "uint256[]"
        }
      ],
      "payable": false,
      "stateMutability": "view",
      "type": "function"
    },
    {
      "constant": true,
      "inputs": [],
      "name": "preSingersRanking",
      "outputs": [
        {
          "name": "preSingersRanking_",
          "type": "uint256[]"
        }
      ],
      "payable": false,
      "stateMutability": "view",
      "type": "function"
    },
    {
      "constant": true,
      "inputs": [],
      "name": "getState",
      "outputs": [
        {
          "name": "State",
          "type": "uint8"
        }
      ],
      "payable": false,
      "stateMutability": "view",
      "type": "function"
    },
    {
      "constant": true,
      "inputs": [
        {
          "name": "voter",
          "type": "address"
        }
      ],
      "name": "getVoter",
      "outputs": [
        {
          "name": "prevote",
          "type": "uint256"
        },
        {
          "name": "finalvote",
          "type": "uint256"
        }
      ],
      "payable": false,
      "stateMutability": "view",
      "type": "function"
    }
  ],
  "bytecode": "0x60806040526004600360006101000a81548160ff0219169083600481111561002357fe5b021790555034801561003457600080fd5b506040516020806115058339810180604052602081101561005457600080fd5b8101908080519060200190929190505050336000806101000a81548173ffffffffffffffffffffffffffffffffffffffff021916908373ffffffffffffffffffffffffffffffffffffffff16021790555060008090505b8181101561015457600260405180608001604052808381526020016000815260200160008152602001600015158152509080600181540180825580915050906001820390600052602060002090600402016000909192909190915060008201518160000155602082015181600101556040820151816002015560608201518160030160006101000a81548160ff02191690831515021790555050505080806001019150506100ab565b506001600360006101000a81548160ff0219169083600481111561017457fe5b02179055505061137c806101896000396000f3fe608060405234801561001057600080fd5b50600436106100cf5760003560e01c806350a8ae611161008c578063c19d93fb11610066578063c19d93fb14610334578063c37fffa614610360578063d2cc79cf146103bf578063d4f50f98146103ed576100cf565b806350a8ae611461021b578063870c3af914610276578063a3ec138d146102d5576100cf565b806314329055146100d45780631865c57d14610102578063216b44dc1461012e578063268f11531461015c5780632e4176cf1461018d5780634420e486146101d7575b600080fd5b610100600480360360208110156100ea57600080fd5b810190808035906020019092919050505061044c565b005b61010a6108b2565b6040518082600481111561011a57fe5b60ff16815260200191505060405180910390f35b61015a6004803603602081101561014457600080fd5b81019080803590602001909291905050506108c9565b005b61018b6004803603602081101561017257600080fd5b81019080803560ff1690602001909291905050506109a8565b005b610195610a73565b604051808273ffffffffffffffffffffffffffffffffffffffff1673ffffffffffffffffffffffffffffffffffffffff16815260200191505060405180910390f35b610219600480360360208110156101ed57600080fd5b81019080803573ffffffffffffffffffffffffffffffffffffffff169060200190929190505050610a98565b005b6102476004803603602081101561023157600080fd5b8101908080359060200190929190505050610c6d565b604051808581526020018481526020018381526020018215151515815260200194505050505060405180910390f35b61027e610cb7565b6040518080602001828103825283818151815260200191508051906020019060200280838360005b838110156102c15780820151818401526020810190506102a6565b505050509050019250505060405180910390f35b610317600480360360208110156102eb57600080fd5b81019080803573ffffffffffffffffffffffffffffffffffffffff169060200190929190505050610e08565b604051808381526020018281526020019250505060405180910390f35b61033c610e2c565b6040518082600481111561034c57fe5b60ff16815260200191505060405180910390f35b610368610e3f565b6040518080602001828103825283818151815260200191508051906020019060200280838360005b838110156103ab578082015181840152602081019050610390565b505050509050019250505060405180910390f35b6103eb600480360360208110156103d557600080fd5b8101908080359060200190929190505050610ed3565b005b61042f6004803603602081101561040357600080fd5b81019080803573ffffffffffffffffffffffffffffffffffffffff16906020019092919050505061129b565b604051808381526020018281526020019250505060405180910390f35b600280600481111561045a57fe5b600360009054906101000a900460ff16600481111561047557fe5b146104e8576040517f08c379a000000000000000000000000000000000000000000000000000000000815260040180806020018281038252600e8152602001807f496e76616c69642050686173652e00000000000000000000000000000000000081525060200191505060405180910390fd5b6000809054906101000a900473ffffffffffffffffffffffffffffffffffffffff1673ffffffffffffffffffffffffffffffffffffffff163373ffffffffffffffffffffffffffffffffffffffff1614156105ab576040517f08c379a00000000000000000000000000000000000000000000000000000000081526004018080602001828103825260188152602001807f4368616972706572736f6e20446f204e6f7420566f74652e000000000000000081525060200191505060405180910390fd5b6000600160003373ffffffffffffffffffffffffffffffffffffffff1673ffffffffffffffffffffffffffffffffffffffff16815260200190815260200160002090506000816000015411610668576040517f08c379a00000000000000000000000000000000000000000000000000000000081526004018080602001828103825260198152602001807f416c6c20766f7465732068617665206265656e20757365642e0000000000000081525060200191505060405180910390fd5b6000831015801561067d575060028054905083105b6106ef576040517f08c379a00000000000000000000000000000000000000000000000000000000081526004018080602001828103825260158152602001807f496e76616c69642053696e67657220496e6465782e000000000000000000000081525060200191505060405180910390fd5b600283815481106106fc57fe5b906000526020600020906004020160030160009054906101000a900460ff1661078d576040517f08c379a00000000000000000000000000000000000000000000000000000000081526004018080602001828103825260148152602001807f53696e676572204e6f742046696e69736865642e00000000000000000000000081525060200191505060405180910390fd5b60008090505b816002018054905081101561083e57838260020182815481106107b257fe5b90600052602060002001541415610831576040517f08c379a000000000000000000000000000000000000000000000000000000000815260040180806020018281038252601a8152602001807f53696e67657220416c7265616479204265656e20566f7465642e00000000000081525060200191505060405180910390fd5b8080600101915050610793565b50600181600001600082825403925050819055508060020183908060018154018082558091505090600182039060005260206000200160009091929091909150555060016002848154811061088f57fe5b906000526020600020906004020160010160008282540192505081905550505050565b6000600360009054906101000a900460ff16905090565b6000809054906101000a900473ffffffffffffffffffffffffffffffffffffffff1673ffffffffffffffffffffffffffffffffffffffff163373ffffffffffffffffffffffffffffffffffffffff161461096e576040517f08c379a000000000000000000000000000000000000000000000000000000000815260040180806020018281038252602381526020018061132e6023913960400191505060405180910390fd5b60016002828154811061097d57fe5b906000526020600020906004020160030160006101000a81548160ff02191690831515021790555050565b6000809054906101000a900473ffffffffffffffffffffffffffffffffffffffff1673ffffffffffffffffffffffffffffffffffffffff163373ffffffffffffffffffffffffffffffffffffffff1614610a4d576040517f08c379a000000000000000000000000000000000000000000000000000000000815260040180806020018281038252602381526020018061132e6023913960400191505060405180910390fd5b80600360006101000a81548160ff02191690836004811115610a6b57fe5b021790555050565b6000809054906101000a900473ffffffffffffffffffffffffffffffffffffffff1681565b6001806004811115610aa657fe5b600360009054906101000a900460ff166004811115610ac157fe5b14610b34576040517f08c379a000000000000000000000000000000000000000000000000000000000815260040180806020018281038252600e8152602001807f496e76616c69642050686173652e00000000000000000000000000000000000081525060200191505060405180910390fd5b6000809054906101000a900473ffffffffffffffffffffffffffffffffffffffff1673ffffffffffffffffffffffffffffffffffffffff163373ffffffffffffffffffffffffffffffffffffffff1614610bd9576040517f08c379a000000000000000000000000000000000000000000000000000000000815260040180806020018281038252602381526020018061132e6023913960400191505060405180910390fd5b6002600160008473ffffffffffffffffffffffffffffffffffffffff1673ffffffffffffffffffffffffffffffffffffffff168152602001908152602001600020600001819055506002600160008473ffffffffffffffffffffffffffffffffffffffff1673ffffffffffffffffffffffffffffffffffffffff168152602001908152602001600020600101819055505050565b60028181548110610c7a57fe5b90600052602060002090600402016000915090508060000154908060010154908060020154908060030160009054906101000a900460ff16905084565b60606004806004811115610cc757fe5b600360009054906101000a900460ff166004811115610ce257fe5b14610d55576040517f08c379a000000000000000000000000000000000000000000000000000000000815260040180806020018281038252600e8152602001807f496e76616c69642050686173652e00000000000000000000000000000000000081525060200191505060405180910390fd5b600280549050604051908082528060200260200182016040528015610d895781602001602082028038833980820191505090505b50915060008090505b600280549050811015610e035760028181548110610dac57fe5b90600052602060002090600402016002015460028281548110610dcb57fe5b90600052602060002090600402016001015401838281518110610dea57fe5b6020026020010181815250508080600101915050610d92565b505090565b60016020528060005260406000206000915090508060000154908060010154905082565b600360009054906101000a900460ff1681565b6060600280549050604051908082528060200260200182016040528015610e755781602001602082028038833980820191505090505b50905060008090505b600280549050811015610ecf5760028181548110610e9857fe5b906000526020600020906004020160010154828281518110610eb657fe5b6020026020010181815250508080600101915050610e7e565b5090565b6003806004811115610ee157fe5b600360009054906101000a900460ff166004811115610efc57fe5b14610f6f576040517f08c379a000000000000000000000000000000000000000000000000000000000815260040180806020018281038252600e8152602001807f496e76616c69642050686173652e00000000000000000000000000000000000081525060200191505060405180910390fd5b6000809054906101000a900473ffffffffffffffffffffffffffffffffffffffff1673ffffffffffffffffffffffffffffffffffffffff163373ffffffffffffffffffffffffffffffffffffffff161415611032576040517f08c379a00000000000000000000000000000000000000000000000000000000081526004018080602001828103825260188152602001807f4368616972706572736f6e20446f204e6f7420566f74652e000000000000000081525060200191505060405180910390fd5b6000600160003373ffffffffffffffffffffffffffffffffffffffff1673ffffffffffffffffffffffffffffffffffffffff168152602001908152602001600020905060008160010154116110ef576040517f08c379a00000000000000000000000000000000000000000000000000000000081526004018080602001828103825260198152602001807f416c6c20766f7465732068617665206265656e20757365642e0000000000000081525060200191505060405180910390fd5b60008310158015611104575060028054905083105b611176576040517f08c379a00000000000000000000000000000000000000000000000000000000081526004018080602001828103825260158152602001807f496e76616c69642053696e67657220496e6465782e000000000000000000000081525060200191505060405180910390fd5b60008090505b8160030180549050811015611227578382600301828154811061119b57fe5b9060005260206000200154141561121a576040517f08c379a000000000000000000000000000000000000000000000000000000000815260040180806020018281038252601a8152602001807f53696e67657220416c7265616479204265656e20566f7465642e00000000000081525060200191505060405180910390fd5b808060010191505061117c565b50600181600101600082825403925050819055508060030183908060018154018082558091505090600182039060005260206000200160009091929091909150555060016002848154811061127857fe5b906000526020600020906004020160020160008282540192505081905550505050565b600080600160008473ffffffffffffffffffffffffffffffffffffffff1673ffffffffffffffffffffffffffffffffffffffff168152602001908152602001600020600001549150600160008473ffffffffffffffffffffffffffffffffffffffff1673ffffffffffffffffffffffffffffffffffffffff16815260200190815260200160002060010154905091509156fe4f6e6c79204368616972706572736f6e2048617320417574686f72697a6174696f6e2ea165627a7a7230582002e9fd7d36e61053a18070dd094f8371e4742e1267d722d5121fcfde12a90d5a0029",
  "source": "pragma solidity >=0.4.22 <0.6.0;\n\n/// @title Voting with delegation.\ncontract Ballot {\n    // This declares a new complex type which will\n    // be used for variables later.\n    // It will represent a single voter.\n    struct Voter {\n        \n        uint prevoted;      // The number of availble votes for pre-vote\n        uint finvoted;      // The number of availble votes for final-vote\n        \n        uint[] prevotes;    // indices of the pre-voted singers\n        uint[] finvotes;    // indices of the final-voted singers\n    }\n    \n    struct Singer {\n        // bytes32 name;\n        uint index;         // The index of the singer\n        uint prevoteCount;\n        uint finalvoteCount;\n        bool finished;\n    }\n    \n    address public chairperson;\n\n    // This declares a state variable that\n    // stores a `Voter` struct for each possible address.\n    mapping(address => Voter) public voters;\n\n    // A dynamically-sized array of `Singer` structs.\n    \n    Singer [] public singers;\n    \n    enum Phase {Init, Regs, PreVote, FinVote, Done}\n    Phase public state = Phase.Done;\n    \n    // modifiers\n    modifier validPhase(Phase reqPhase){\n        require(state == reqPhase, \"Invalid Phase.\");\n        _;\n    }\n    modifier onlyChair(){\n        require(msg.sender == chairperson, \"Only Chairperson Has Authorization.\");\n        _;\n    }\n    modifier notChair(){\n        require(msg.sender != chairperson, \"Chairperson Do Not Vote.\");\n        _;\n    }\n    \n    \n    \n    /// Create a new ballot to choose one of `singerNames`.\n    constructor(uint numSingers) public {\n        chairperson = msg.sender;\n        \n        // For each of the provided singer names,\n        // create a new singer object and add it\n        // to the end of the array.\n        for (uint i = 0; i < numSingers; i++) {\n            // `Singer({...})` creates a temporary\n            // Singer object and `singers.push(...)`\n            // appends it to the end of `singers`.\n            singers.push(Singer({\n                index: i,\n                prevoteCount: 0,\n                finalvoteCount: 0,\n                finished: false\n            }));\n        }\n        state = Phase.Regs;\n    }\n    \n    function changeState(Phase x) onlyChair public{\n        //require (x > state, \"Cannot Go Back To The Previous State.\");\n        state = x;\n    }\n    \n    function markFinished(uint singer) onlyChair public{\n        singers[singer].finished = true;\n    }\n    \n    function register(address voter) public validPhase(Phase.Regs) onlyChair{\n        voters[voter].prevoted = 2;\n        voters[voter].finvoted = 2;\n    }\n\n    \n    /// Give your prevote to singer.\n    function preVote(uint singer) public validPhase(Phase.PreVote) notChair{\n        Voter storage sender = voters[msg.sender];\n        require(sender.prevoted > 0, \"All votes have been used.\");\n        require(singer>=0 && singer<singers.length, \"Invalid Singer Index.\");\n        require(singers[singer].finished, \"Singer Not Finished.\");\n        for (uint i = 0; i < sender.prevotes.length; i++){\n            require(sender.prevotes[i] != singer, \"Singer Already Been Voted.\");\n        }\n        sender.prevoted -= 1;\n        sender.prevotes.push(singer);\n        singers[singer].prevoteCount += 1;\n    }\n\n    /// Give your vote to singer.\n    function finVote(uint singer) public validPhase(Phase.FinVote) notChair{\n        Voter storage sender = voters[msg.sender];\n        require(sender.finvoted > 0, \"All votes have been used.\");\n        require(singer>=0 && singer<singers.length, \"Invalid Singer Index.\");\n        for (uint i = 0; i < sender.finvotes.length; i++){\n            require(sender.finvotes[i] != singer, \"Singer Already Been Voted.\");\n        }\n\n        // If `singer` is out of the range of the array,\n        // this will throw automatically and revert all\n        // changes.\n        sender.finvoted -= 1;\n        sender.finvotes.push(singer);\n        singers[singer].finalvoteCount += 1;\n    }\n\n    \n    \n    function finalSingersRanking() public view validPhase(Phase.Done)\n            returns(uint[] memory finalSingersRanking_)\n    {\n        finalSingersRanking_ = new uint[](singers.length);\n        for (uint i=0; i<singers.length; i++){\n            finalSingersRanking_[i] = singers[i].prevoteCount + singers[i].finalvoteCount;\n        }\n       \n    }\n    \n    function preSingersRanking() public view\n            returns(uint[] memory preSingersRanking_)\n    {\n        preSingersRanking_ = new uint[](singers.length);\n        for (uint i=0; i<singers.length; i++){\n            preSingersRanking_[i] = singers[i].prevoteCount;\n        }\n        \n       \n    }\n\n    function getState() public view returns(Phase State){\n        State = state;\n    }\n\n    function getVoter(address voter) public view returns(uint prevote, uint finalvote){\n        prevote = voters[voter].prevoted;\n        finalvote = voters[voter].finvoted;\n    }\n    \n}",
  "sourcePath": "/Users/binganfeng/Desktop/Lecture/Fall2019/CSE526/Project1/singer/singer-contract/contracts/SingerBallot.sol",
  "compiler": {
    "name": "solc",
    "version": "0.5.8+commit.23d335f2.Emscripten.clang"
  },
  "schemaVersion": "3.0.16",
  "updatedAt": "2019-10-28T02:03:35.438Z",
  "devdoc": {
    "methods": {},
    "title": "Voting with delegation."
  },
  "userdoc": {
    "methods": {
      "constructor": "Create a new ballot to choose one of `singerNames`.",
      "finVote(uint256)": {
        "notice": "Give your vote to singer."
      },
      "preVote(uint256)": {
        "notice": "Give your prevote to singer."
      }
    }
  }
}